S00A000054582E737265636E
S11300000C942A000C9434000C9434000C943400A6
S11300100C9434000C9434000C9434000C9434008C
S11300200C9434000C9434000C9434000C9434007C
S11300300C9434000C9434000C9434000C9434006C
S11300400C9434000C9434000C9434000C9434005C
S11300500C94340011241FBECFE5D4E0DEBFCDBF25
S11300600E9491000C94E4000C9400008EEF8BBB72
S1130070CC9B1EC0CD9B1EC0CE9B1EC08DEF8BBBE8
S1130080CC9B1CC0CD9B1CC0CE9B1CC08BE78BBBE8
S1130090CC9B1AC0CD9B1AC0CE9B1AC087EF8BBBDA
S11300A0CC9B18C0CD9B18C0CE9918C083E208958C
S11300B081E3089582E3089583E3089584E3089532
S11300C085E3089586E3089587E3089588E3089512
S11300D089E308958AE2089580E3089580E008950D
S11300E09FE09ABBEFE9FFE03197F1F700C0000011
S11300F020EF2BBBEFE9FFE03197F1F700C00000E0
S11301009BBBFFE728E331E0F15020403040E1F7AA
S113011000C0000099B3903F11F00E94360090E0B7
S113012008950E94D6008FEF84BB15BA0E94700018
S11301308133910521F481E30E94E000F7CF8233FB
S1130140910521F482E30E94E000F0CF833391050E
S113015021F483E30E94E000E9CF8433910521F484
S113016084E30E94E000E2CF8533910521F485E326
S11301700E94E000DBCF8633910521F486E30E94E0
S1130180E000D4CF8733910521F487E30E94E00097
S1130190CDCF8833910521F488E30E94E000C6CFD7
S11301A0C09721F680E30E94E000C0CF8BB182604B
S11301B08BB988E18AB986E880BD8CE089B9089555
S10F01C05D9BFECF8CB90895F894FFCF2E
S9030000FC
