S00A000052582E7372656370
S11300000C942A000C9434000C9434000C943400A6
S11300100C9434000C9434000C9434000C9434008C
S11300200C9434000C9434000C9434000C9434007C
S11300300C9434000C9434000C9434000C9434006C
S11300400C9434000C9434000C9434000C9434005C
S11300500C94340011241FBECFE5D4E0DEBFCDBF25
S11300600E9436000C9480000C9400000E947200E0
S11300708FEF84BB15BA0E947C0090E08133910518
S113008019F481E085BBF7CF8233910519F483E03D
S113009085BBF1CF8333910519F487E085BBEBCFA2
S11300A08433910519F48FE085BBE5CF8533910541
S11300B019F48FE185BBDFCF8633910519F48FE303
S11300C085BBD9CF8733910519F48FE785BBD3CF8F
S11300D08833910519F48FEF85BBCDCFC09759F6BE
S11300E015BAC9CF8BB182608BB988E18AB986E829
S11300F080BD8CE089B908955F9BFECF8CB10895D3
S1070100F894FFCF9D
S9030000FC
